{
  "transactions": [
    {
      "hash": "0x9ee697120dfecbb77617bbb14e8b0c4223bf8ba4f7228e36cdc48db1f8680a56",
      "transactionType": "CALL",
      "contractName": null,
      "contractAddress": "0x779877a7b0d9e8603169ddbd7836e478b4624789",
      "function": "transferAndCall(address,uint256,bytes)",
      "arguments": [
        "0x9DdfaCa8183c41ad55329BdeeD9F6A8d53168B1B",
        "3000000000000000000",
        "0x28d0e01059f5b03a1dbab53e18199c661506314330db8c54bd8743dfa54d2853"
      ],
      "transaction": {
        "from": "0x3f0315c53bd1ce017f870632c6c6da35a9ec0924",
        "to": "0x779877a7b0d9e8603169ddbd7836e478b4624789",
        "gas": "0x1c1ff",
        "value": "0x0",
        "input": "0x4000aea00000000000000000000000009ddfaca8183c41ad55329bdeed9f6a8d53168b1b00000000000000000000000000000000000000000000000029a2241af62c00000000000000000000000000000000000000000000000000000000000000000060000000000000000000000000000000000000000000000000000000000000002028d0e01059f5b03a1dbab53e18199c661506314330db8c54bd8743dfa54d2853",
        "nonce": "0x1c",
        "chainId": "0xaa36a7"
      },
      "additionalContracts": [],
      "isFixedGasLimit": false
    }
  ],
  "receipts": [
    {
      "status": "0x1",
      "cumulativeGasUsed": "0x174ce69",
      "logs": [
        {
          "address": "0x779877a7b0d9e8603169ddbd7836e478b4624789",
          "topics": [
            "0xddf252ad1be2c89b69c2b068fc378daa952ba7f163c4a11628f55a4df523b3ef",
            "0x0000000000000000000000003f0315c53bd1ce017f870632c6c6da35a9ec0924",
            "0x0000000000000000000000009ddfaca8183c41ad55329bdeed9f6a8d53168b1b"
          ],
          "data": "0x00000000000000000000000000000000000000000000000029a2241af62c0000",
          "blockHash": "0xa0d33e93f1f9e2100ba27f7429ca9d5e5319d3c960795e473263c01e890fde83",
          "blockNumber": "0x836a41",
          "blockTimestamp": "0x68597010",
          "transactionHash": "0x9ee697120dfecbb77617bbb14e8b0c4223bf8ba4f7228e36cdc48db1f8680a56",
          "transactionIndex": "0x53",
          "logIndex": "0x5f",
          "removed": false
        },
        {
          "address": "0x779877a7b0d9e8603169ddbd7836e478b4624789",
          "topics": [
            "0xe19260aff97b920c7df27010903aeb9c8d2be5d310a2c67824cf3f15396e4c16",
            "0x0000000000000000000000003f0315c53bd1ce017f870632c6c6da35a9ec0924",
            "0x0000000000000000000000009ddfaca8183c41ad55329bdeed9f6a8d53168b1b"
          ],
          "data": "0x00000000000000000000000000000000000000000000000029a2241af62c00000000000000000000000000000000000000000000000000000000000000000040000000000000000000000000000000000000000000000000000000000000002028d0e01059f5b03a1dbab53e18199c661506314330db8c54bd8743dfa54d2853",
          "blockHash": "0xa0d33e93f1f9e2100ba27f7429ca9d5e5319d3c960795e473263c01e890fde83",
          "blockNumber": "0x836a41",
          "blockTimestamp": "0x68597010",
          "transactionHash": "0x9ee697120dfecbb77617bbb14e8b0c4223bf8ba4f7228e36cdc48db1f8680a56",
          "transactionIndex": "0x53",
          "logIndex": "0x60",
          "removed": false
        },
        {
          "address": "0x9ddfaca8183c41ad55329bdeed9f6a8d53168b1b",
          "topics": [
            "0x1ced9348ff549fceab2ac57cd3a9de38edaaab274b725ee82c23e8fc8c4eec7a",
            "0x28d0e01059f5b03a1dbab53e18199c661506314330db8c54bd8743dfa54d2853"
          ],
          "data": "0x000000000000000000000000000000000000000000000000000000000000000000000000000000000000000000000000000000000000000029a2241af62c0000",
          "blockHash": "0xa0d33e93f1f9e2100ba27f7429ca9d5e5319d3c960795e473263c01e890fde83",
          "blockNumber": "0x836a41",
          "blockTimestamp": "0x68597010",
          "transactionHash": "0x9ee697120dfecbb77617bbb14e8b0c4223bf8ba4f7228e36cdc48db1f8680a56",
          "transactionIndex": "0x53",
          "logIndex": "0x61",
          "removed": false
        }
      ],
      "logsBloom": "0x00000004000000000000000000000000000000000020000000000000020000000000000000000040000000000000000000000000000000000000000000000000000000000000000000000008000000000000000000000000000020000020000008000000000000000000000000000000000000000000000000000010000040000000000000000000008000010000800000000020000000080000000000000000000100000000000000000000010000000000000000000000000004000000000000000003000000000000000000000000000000000000000100000000000000000010000000000000800000000000000000000000000000000000000000000000",
      "type": "0x2",
      "transactionHash": "0x9ee697120dfecbb77617bbb14e8b0c4223bf8ba4f7228e36cdc48db1f8680a56",
      "transactionIndex": "0x53",
      "blockHash": "0xa0d33e93f1f9e2100ba27f7429ca9d5e5319d3c960795e473263c01e890fde83",
      "blockNumber": "0x836a41",
      "gasUsed": "0x133b1",
      "effectiveGasPrice": "0x22f8cc93",
      "from": "0x3f0315c53bd1ce017f870632c6c6da35a9ec0924",
      "to": "0x779877a7b0d9e8603169ddbd7836e478b4624789",
      "contractAddress": null
    }
  ],
  "libraries": [],
  "pending": [],
  "returns": {},
  "timestamp": 1750691856,
  "chain": 11155111,
  "commit": "d5a4c2f"
}